{
  "contractName": "TrackingInfo",
  "abi": [
    {
      "inputs": [],
      "payable": false,
      "stateMutability": "nonpayable",
      "type": "constructor"
    },
    {
      "constant": true,
      "inputs": [
        {
          "internalType": "uint256",
          "name": "",
          "type": "uint256"
        }
      ],
      "name": "Scans",
      "outputs": [
        {
          "internalType": "uint256",
          "name": "Id",
          "type": "uint256"
        },
        {
          "internalType": "string",
          "name": "Name",
          "type": "string"
        },
        {
          "internalType": "uint256",
          "name": "Qty",
          "type": "uint256"
        },
        {
          "internalType": "string",
          "name": "Category",
          "type": "string"
        },
        {
          "internalType": "string",
          "name": "SubCategory",
          "type": "string"
        },
        {
          "internalType": "string",
          "name": "Image",
          "type": "string"
        },
        {
          "internalType": "string",
          "name": "SKU",
          "type": "string"
        },
        {
          "internalType": "uint256",
          "name": "ScanDateTime",
          "type": "uint256"
        },
        {
          "internalType": "string",
          "name": "DeviceId2",
          "type": "string"
        }
      ],
      "payable": false,
      "stateMutability": "view",
      "type": "function"
    },
    {
      "constant": false,
      "inputs": [
        {
          "internalType": "uint256",
          "name": "Id",
          "type": "uint256"
        },
        {
          "internalType": "string",
          "name": "Name",
          "type": "string"
        },
        {
          "internalType": "uint256",
          "name": "Qty",
          "type": "uint256"
        },
        {
          "internalType": "string",
          "name": "Category",
          "type": "string"
        },
        {
          "internalType": "string",
          "name": "SubCategory",
          "type": "string"
        },
        {
          "internalType": "string",
          "name": "Image",
          "type": "string"
        },
        {
          "internalType": "string",
          "name": "SKU",
          "type": "string"
        },
        {
          "internalType": "string",
          "name": "DeviceId",
          "type": "string"
        }
      ],
      "name": "registerScan",
      "outputs": [
        {
          "internalType": "uint256",
          "name": "",
          "type": "uint256"
        }
      ],
      "payable": true,
      "stateMutability": "payable",
      "type": "function"
    }
  ],
  "bytecode": "0x60806040526000805534801561001457600080fd5b50610e89806100246000396000f3fe6080604052600436106100295760003560e01c806309b24e6b1461002e578063cf04ed9c14610405575b600080fd5b6103ef600480360361010081101561004557600080fd5b81019080803590602001909291908035906020019064010000000081111561006c57600080fd5b82018360208201111561007e57600080fd5b803590602001918460018302840111640100000000831117156100a057600080fd5b91908080601f016020809104026020016040519081016040528093929190818152602001838380828437600081840152601f19601f820116905080830192505050505050509192919290803590602001909291908035906020019064010000000081111561010d57600080fd5b82018360208201111561011f57600080fd5b8035906020019184600183028401116401000000008311171561014157600080fd5b91908080601f016020809104026020016040519081016040528093929190818152602001838380828437600081840152601f19601f820116905080830192505050505050509192919290803590602001906401000000008111156101a457600080fd5b8201836020820111156101b657600080fd5b803590602001918460018302840111640100000000831117156101d857600080fd5b91908080601f016020809104026020016040519081016040528093929190818152602001838380828437600081840152601f19601f8201169050808301925050505050505091929192908035906020019064010000000081111561023b57600080fd5b82018360208201111561024d57600080fd5b8035906020019184600183028401116401000000008311171561026f57600080fd5b91908080601f016020809104026020016040519081016040528093929190818152602001838380828437600081840152601f19601f820116905080830192505050505050509192919290803590602001906401000000008111156102d257600080fd5b8201836020820111156102e457600080fd5b8035906020019184600183028401116401000000008311171561030657600080fd5b91908080601f016020809104026020016040519081016040528093929190818152602001838380828437600081840152601f19601f8201169050808301925050505050505091929192908035906020019064010000000081111561036957600080fd5b82018360208201111561037b57600080fd5b8035906020019184600183028401116401000000008311171561039d57600080fd5b91908080601f016020809104026020016040519081016040528093929190818152602001838380828437600081840152601f19601f8201169050808301925050505050505091929192905050506106ea565b6040518082815260200191505060405180910390f35b34801561041157600080fd5b5061043e6004803603602081101561042857600080fd5b81019080803590602001909291905050506109d1565b604051808a815260200180602001898152602001806020018060200180602001806020018881526020018060200187810387528f818151815260200191508051906020019080838360005b838110156104a4578082015181840152602081019050610489565b50505050905090810190601f1680156104d15780820380516001836020036101000a031916815260200191505b5087810386528d818151815260200191508051906020019080838360005b8381101561050a5780820151818401526020810190506104ef565b50505050905090810190601f1680156105375780820380516001836020036101000a031916815260200191505b5087810385528c818151815260200191508051906020019080838360005b83811015610570578082015181840152602081019050610555565b50505050905090810190601f16801561059d5780820380516001836020036101000a031916815260200191505b5087810384528b818151815260200191508051906020019080838360005b838110156105d65780820151818401526020810190506105bb565b50505050905090810190601f1680156106035780820380516001836020036101000a031916815260200191505b5087810383528a818151815260200191508051906020019080838360005b8381101561063c578082015181840152602081019050610621565b50505050905090810190601f1680156106695780820380516001836020036101000a031916815260200191505b50878103825288818151815260200191508051906020019080838360005b838110156106a2578082015181840152602081019050610687565b50505050905090810190601f1680156106cf5780820380516001836020036101000a031916815260200191505b509f5050505050505050505050505050505060405180910390f35b600080891415610762576040517f08c379a000000000000000000000000000000000000000000000000000000000815260040180806020018281038252600e8152602001807f496420697320726571756972656400000000000000000000000000000000000081525060200191505060405180910390fd5b60008851116107d9576040517f08c379a00000000000000000000000000000000000000000000000000000000081526004018080602001828103825260108152602001807f4e616d652069732072657175697265640000000000000000000000000000000081525060200191505060405180910390fd5b6000871415610850576040517f08c379a000000000000000000000000000000000000000000000000000000000815260040180806020018281038252600f8152602001807f517479206973207265717569726564000000000000000000000000000000000081525060200191505060405180910390fd5b886001600080548152602001908152602001600020600001819055508760016000805481526020019081526020016000206001019080519060200190610897929190610daf565b508660016000805481526020019081526020016000206002018190555085600160008054815260200190815260200160002060030190805190602001906108df929190610daf565b50846001600080548152602001908152602001600020600401908051906020019061090b929190610daf565b508360016000805481526020019081526020016000206005019080519060200190610937929190610daf565b508260016000805481526020019081526020016000206006019080519060200190610963929190610daf565b504260016000805481526020019081526020016000206007018190555081600160008054815260200190815260200160002060080190805190602001906109ab929190610daf565b506000808154809291906001019190505550600160005403905098975050505050505050565b6001602052806000526040600020600091509050806000015490806001018054600181600116156101000203166002900480601f016020809104026020016040519081016040528092919081815260200182805460018160011615610100020316600290048015610a835780601f10610a5857610100808354040283529160200191610a83565b820191906000526020600020905b815481529060010190602001808311610a6657829003601f168201915b505050505090806002015490806003018054600181600116156101000203166002900480601f016020809104026020016040519081016040528092919081815260200182805460018160011615610100020316600290048015610b275780601f10610afc57610100808354040283529160200191610b27565b820191906000526020600020905b815481529060010190602001808311610b0a57829003601f168201915b505050505090806004018054600181600116156101000203166002900480601f016020809104026020016040519081016040528092919081815260200182805460018160011615610100020316600290048015610bc55780601f10610b9a57610100808354040283529160200191610bc5565b820191906000526020600020905b815481529060010190602001808311610ba857829003601f168201915b505050505090806005018054600181600116156101000203166002900480601f016020809104026020016040519081016040528092919081815260200182805460018160011615610100020316600290048015610c635780601f10610c3857610100808354040283529160200191610c63565b820191906000526020600020905b815481529060010190602001808311610c4657829003601f168201915b505050505090806006018054600181600116156101000203166002900480601f016020809104026020016040519081016040528092919081815260200182805460018160011615610100020316600290048015610d015780601f10610cd657610100808354040283529160200191610d01565b820191906000526020600020905b815481529060010190602001808311610ce457829003601f168201915b505050505090806007015490806008018054600181600116156101000203166002900480601f016020809104026020016040519081016040528092919081815260200182805460018160011615610100020316600290048015610da55780601f10610d7a57610100808354040283529160200191610da5565b820191906000526020600020905b815481529060010190602001808311610d8857829003601f168201915b5050505050905089565b828054600181600116156101000203166002900490600052602060002090601f016020900481019282601f10610df057805160ff1916838001178555610e1e565b82800160010185558215610e1e579182015b82811115610e1d578251825591602001919060010190610e02565b5b509050610e2b9190610e2f565b5090565b610e5191905b80821115610e4d576000816000905550600101610e35565b5090565b9056fea265627a7a723158208c78719e93db983169186ffc9ca7d402667db963e5d1b28ab7d672ee15aa3d0f64736f6c63430005100032",
  "source": "pragma solidity >=0.4.22 <0.7.0;\r\n\r\n/** \r\n * @title ScanTrackingInfo\r\n * @dev Implements add TrackingInfo on product QRcode scan\r\n */\r\ncontract TrackingInfo {\r\n   uint TotalScan = 0;\r\n    struct Info {\r\n        uint Id; // product id\r\n        string Name; // Name of the product\r\n        uint Qty; // product Quantity\r\n        string Category; // product Category\r\n        string SubCategory; // product SubCategory\r\n        string Image; // product image\r\n        string SKU; // product SKU\r\n        uint ScanDateTime; // qr code scan time\r\n        string DeviceId2; //device identity\r\n    }\r\n    \r\n    /**\r\n     * @title : manage scans per product\r\n     */\r\n     mapping (uint => Info) public Scans;\r\n    \r\n    \r\n    constructor() public {\r\n    }\r\n    \r\n    /** \r\n     * @dev register product scan\r\n     * @return boolean success or error \r\n     */\r\n    function registerScan( uint Id, string memory Name , uint Qty, string memory Category, string memory SubCategory, string memory Image, string memory SKU,string memory DeviceId) public payable returns (uint) {\r\n       require( Id != 0, \"Id is required\");\r\n       require( bytes(Name).length > 0, \"Name is required\");\r\n       require( Qty != 0 , \"Qty is required\");\r\n       //require( bytes(Category).length > 0, \"Category is required\");\r\n       //require( bytes(SubCategory).length > 0, \"SubCategory is required\");\r\n       //require( bytes(Image).length > 0, \"Image is required\");\r\n       //require( bytes(SKU).length > 0, \"SKU is required\");\r\n       //require( bytes(DeviceId).length > 0, \"DeviceId is required\");\r\n        \r\n        Scans[TotalScan].Id = Id;\r\n        Scans[TotalScan].Name = Name;\r\n        Scans[TotalScan].Qty = Qty;\r\n        Scans[TotalScan].Category = Category;\r\n        Scans[TotalScan].SubCategory = SubCategory;\r\n        Scans[TotalScan].Image = Image;\r\n        Scans[TotalScan].SKU = SKU;\r\n        Scans[TotalScan].ScanDateTime = now;\r\n        Scans[TotalScan].DeviceId2 = DeviceId;\r\n        TotalScan++;\r\n        return TotalScan-1;\r\n    }\r\n   \r\n}",
  "sourcePath": "F:/testtask2/ionic-app/contracts/TrackingInfo.sol",
  "compiler": {
    "name": "solc",
    "version": "0.5.16+commit.9c3226ce.Emscripten.clang"
  },
  "schemaVersion": "3.2.4",
  "updatedAt": "2020-09-07T12:43:13.033Z",
  "networkType": "ethereum",
  "devdoc": {
    "details": "Implements add TrackingInfo on product QRcode scan",
    "methods": {
      "registerScan(uint256,string,uint256,string,string,string,string,string)": {
        "details": "register product scan",
        "return": "boolean success or error "
      }
    },
    "title": "ScanTrackingInfo"
  },
  "userdoc": {
    "methods": {}
  }
}